:100000002025002019110000151100001111000019
:1000100000000000000000000000000000000000E0
:1000200000000000000000000000000015110000AA
:100030000000000000000000151100001511000074
:100040001511000015110000151100001511000018
:100050001511000015110000151100001511000008
:1000600015110000151100001511000015110000F8
:1000700015110000410900003109000021090000AC
:100080001109000001090000F1080000E10800006A
:10009000D108000015110000151100001511000015
:1000A00008B5064B06480333191A062900D808BDBF
:1000B000044A002AFBD09047F9E7C046AC14000080
:1000C000AC1400000000000008B50748074B191ADF
:1000D0008B10DA0FD118491000D108BD044B002B4A
:1000E000FBD09847F9E7C046AC140000AC14000000
:1000F0000000000010B5074C2378002B09D1FFF752
:10010000CFFF0548002802D0044800E000BF0121CD
:10011000217010BD3804002000000000AC14000065
:1001200008B5094B002B03D00848094900E000BF7F
:1001300008480168002903D0074A002A00D09047E8
:10014000FFF7C2FF08BDC04600000000AC1400006D
:100150003C040020AC14000000000000F0B55F4635
:1001600056464D46E0B498B0041C171C0160AE4BD7
:10017000186A8022520202431A620B780520DA07BD
:1001800000D5D0E10B781C20990700D5CBE122687F
:1001900001920023684643723B780372172002A93C
:1001A000A24B98471720A24B98472C23FB5C002BAF
:1001B00039D03D7B2B22BA5CAD18EDB2EB18DBB227
:1001C0009A469D421AD2002189469A4A934603AE26
:1001D0004B467370B37004A859465022964B98470B
:1001E00001233370142D05D8AB0004A9C85C03A902
:1001F000924B98470135EDB2AA45E8D8FE8903AD88
:1002000000236B70AB7004A88A4950228A4B984730
:1002100001232B70142E2ED8B60004AB985D03A9D1
:10022000864B984727E03E7B03AD00236B70AB7095
:1002300004A880495022804B984701232B70142E2C
:1002400005D8B60004AB985D03A97C4B9847FE899E
:1002500003AD00236B70AB7004A876495022764B37
:10026000984701232B70142E05D8B60004AB985D77
:1002700003A9724B98477B7D9B00DBB2019A1370F8
:10028000BB7DDB017A781343DBB2019843703B7985
:10029000342B00D946E19B00694AD3589F4602207F
:1002A000102101221AE07A7C387C102116E0062009
:1002B0001021032212E00820102104220EE0002069
:1002C000302100220AE000202021002206E0002048
:1002D0000021002202E004201021022212017023DA
:1002E00013400343019A9370FB7D17203F2B00D9E5
:1002F00019E1D3702268537E5BB2002BFBDBFA7CE2
:100300007B8813432422BA5CD20013433A7D9200C7
:100310001343BA7C520013430B43019883803D7E04
:10032000002D01D122689DE010295DD002D800295E
:100330003AD0F7E720291BD03029F3D1FB7C002BE2
:100340000CD0FB6980331720FF2B00D9EBE03B6A10
:100350007F2B00DDE7E0803300DAE4E01720F96965
:10036000FF2900DDDFE03A6AFF2A00DDDBE0D9E7A4
:10037000FB7C002B0DD0FB69802080001A18172011
:10038000304B9A4200D9CEE02F4B396A994200DBBC
:10039000C9E017202B4BFA699A4200DDC3E0396AA5
:1003A000994200DDBFE0BDE7FB7C002B11D0FB696B
:1003B000802000011A181720244B9A4200D9B2E07D
:1003C0003B6A234A934200DDADE0224A934200DAC1
:1003D000A9E017201D4BF969994200DDA3E03A6AB4
:1003E0009A4200DD9FE09DE7FB7C002B11D0FB696A
:1003F000802000021A181720174B9A4200D992E069
:100400003B6A164A934200DD8DE0154A934200DABA
:1004100089E01720104BF969994200DD83E03A6AC0
:100420009A4200DD7FE07DE70004004049100000B3
:10043000DD0F0000D0130000C1120000E510000025
:10044000FC120000FF03000001FEFFFFFF0F000091
:10045000FF07000000F8FFFFFFFF0000FF7F000024
:100460000080FFFF537E5BB2002BFBDB019B1D7204
:100470002268537E5BB2002BFBDBBB8B019883832E
:100480002268537E5BB2002BFBDB3B8C01990B8413
:100490002C23FB5C002B04D0013BDBB217200F2B7D
:1004A00041D82B22BD5C17200F2D3CD821684A7EF5
:1004B00052B2002AFBDBF9893A7B0A43B86802434F
:1004C0002D0515431B042B4301990B612A23FB5C6B
:1004D0000B750F238B752423FB5C002B10D0FB8C3A
:1004E0001720144A93421ED88B843B8D8020000134
:1004F000191889B217200F4A914214D80199CB8458
:100500000D4B1A685201E023DB001A400B4B586870
:1005100041011B68DB0E0B43DBB2134301990B85D2
:10052000002000E0172018B01CBC91469A46A34654
:10053000F0BDC046FF0F00002460800020608000F6
:1005400070B588B00C4A6B4670CA70C332CA32C3E9
:1005500042CA42C3009B834205D001AA012302CABA
:10056000814203D100E00023D8B203E00133082B1D
:10057000F5D1002008B070BD20140000F0B54F4642
:100580004646C0B489B0041C0D1C9046081C964B0E
:1005900098478146954F391C203106A80822944E71
:1005A000B047391C283102A81022B0470023A360AD
:1005B000E3602361636123766376484682008D4B56
:1005C000D450256041468B78082B04D117204A4629
:1005D000D20700D503E123712B880520D90700D568
:1005E000FDE0EB7B1C20DA0600D5F8E02B889907AC
:1005F00000D5F4E04246537C002B08D001A901232A
:100600008B70107F08704B70107D7B4B9847414674
:100610008B7C002B0BD001A901238B70202242443C
:1006200012780A704B704346187E734B9847734B91
:100630001A6A4946480002A9415A0A431A624246C8
:100640009378082B08D16D4B1A6A48460130400058
:1006500002A9415A0A431A62002368464370414680
:100660000B78037006AB4A469E5C301C6946644BAF
:100670009847301C634B9847434698881B8918431A
:1006800041468A798B78134318434B78002B02D06C
:1006900080231B01184321687F22CB7B9343FCD12D
:1006A00028804246507B431E98418000937B002B5C
:1006B00001D00123184321687F22CB7B9343FCD1D7
:1006C000FF232B71002805D021687F22CB7B934329
:1006D000FCD168714346987ADB7A002B01D0102355
:1006E000184341460B7B002B01D02023184321687F
:1006F0007F22CB7B9343FCD1A8714246D07B431E23
:100700009841000121687F22CB7B9343FCD1414675
:100710000B7C03436B812379DAB2042A04D0082AC4
:1007200042D0002A26D059E021687F22CB7B934318
:10073000FCD124234246D35C2B7421687F22CB7BDF
:100740009343FCD125234046C35C2B7521687F224F
:10075000CB7B9343FCD126234146CB5C2B7621688F
:100760007F22CB7B9343FCD127234246D35C6B761D
:10077000002034E021687F22CB7B9343FCD14046AC
:10078000838C2B8221687F22CB7B9343FCD1414613
:10079000CB8C2B8321687F22CB7B9343FCD14246B9
:1007A000138D6B8300201AE021687F22CB7B93435B
:1007B000FCD143465B6A2B6121687F22CB7B93434C
:1007C000FCD14046806AA86121687F22CB7B93439D
:1007D000FCD14146CB6AEB61002000E0172009B054
:1007E0000CBC90469946F0BD410500002014000065
:1007F000C112000074040020E51000000004004055
:1008000049100000DD0F000010B502687F24D37B83
:10081000A343FCD10379D8B2042804D008280AD015
:10082000002804D00AE0C9B21175002007E089B29F
:100830001183002003E09161002000E0172010BD2B
:1008400000B5931C9B001950022A04D1027E10238C
:10085000134303760CE0032A04D1027E20231343C2
:10086000037605E0012393401A1C037E1A430276A7
:10087000002000BD38B58000144BC4582268937B1B
:10088000257E1D40637E1D40EB0705D5201CA26818
:100890009047012322689373AB0705D5201CE268BB
:1008A0009047022322689373EB0605D5201C22692A
:1008B0009047102322689373AB0605D5201C62690C
:1008C0009047236820229A7338BDC04674040020E4
:1008D00008B50720014B984708BDC04675080000C1
:1008E00008B50620014B984708BDC04675080000B2
:1008F00008B50520014B984708BDC04675080000A3
:1009000008B50420014B984708BDC0467508000093
:1009100008B50320014B984708BDC0467508000084
:1009200008B50220014B984708BDC0467508000075
:1009300008B50120014B984708BDC0467508000066
:1009400008B50020014B984708BDC0467508000057
:1009500000B50B4A13780133DBB21370052B04D1B9
:100960008022D201074B5A6108E0312B06D9802240
:10097000D201044B9A610022014B1A7000BDC0469F
:10098000540400200044004138B5304A1223137348
:100990002F4C201C2F49304B984723685A7E52B267
:1009A000002AFBDB197B02220A431A73012004256B
:1009B0000224197E021C0A400D4200D022430C4240
:1009C00000D02A431042F4D05A7E52B2002AFBDBF8
:1009D000598B224A118001221A765A7E52B2002A7D
:1009E000FBDB197B01220A431A73184A1223137383
:1009F000174C201C1749184B984723685A7E52B24F
:100A0000002AFBDB197B02220A431A73012004250A
:100A10000224197E021C0A400D4200D022430C42DF
:100A200000D02A431042F4D05A7E52B2002AFBDB97
:100A3000598B0B4A118001221A765A7E52B2002A33
:100A4000FBDB197B01220A431A7338BDEC0400203A
:100A5000E8040020004000425D01000094040020F2
:100A6000E404002070B582B001AC012363702370F0
:100A70000C20211C134DA847134E80235B0173618A
:100A80000D20211CA84780239B0173610F20211C8E
:100A9000A84780231B0273610E20211CA8478023D6
:100AA000DB0173611620211CA8478023DB037361DF
:100AB000002323701C20211CA8470220211CA847CA
:100AC00002B070BD290D00000044004170B5644BB8
:100AD0009847644B9847644B002100225970598015
:100AE0001A761962D9619960C0214901D9819A7435
:100AF000DA741A752A215A545A759A7501202421DC
:100B000058545A4909684804000DD8844901090D10
:100B100019852B241A552C241A55554B984202D06E
:100B200009B2994203D1002124234F4AD1544E4A9D
:100B300003231370102111711221117308211174F4
:100B400004215174D3754B4C201C4B494B4B984797
:100B500023685A7E52B2002AFBDB197802220A432C
:100B60001A70474A002300211370937113810020EB
:100B700050709172D172117391735173D17311745A
:100B800051745361D3619174936113629384D384DC
:100B90001385E023DB00938004239370394C201CE1
:100BA00039493A4B9847201C9C21394B9847201CC7
:100BB00038490022384B98472068384B9847384BC3
:100BC0001B5C1F2119400122131C8B40191C354B43
:100BD0001960617E01230B43637623685A737F2279
:100BE000D97B9143FCD1198802220A431A80254BF4
:100BF0001B687F22D97B9143FCD100221A717F228E
:100C0000D97B9143FCD140225A71274C80256D0538
:100C10000426236A2B4209D180239B01A3618023F0
:100C20001B0263618023DB03636115E0236A1E42BC
:100C300009D180239B01636180231B02A361802370
:100C4000DB03A36108E080239B01636180231B0217
:100C500063618023DB036361144B9847D9E7C04687
:100C6000190E0000650A0000EC04002020608000DE
:100C7000FF0F0000E8040020004000425D0100007A
:100C800098040020C8040020002000427D050000D8
:100C9000090800005109000041080000410500005A
:100CA0005814000000E100E0004400418909000000
:100CB00000B50D4B1B68002B10D1EFF31083002BF8
:100CC00009D172B6BFF35F8F0022084B1A70012260
:100CD000074B1A7002E00022054B1A70024B1A688B
:100CE00001321A6000BDC0465804002000000020F8
:100CF0005C04002000B5094B1A68013A1A601B68B1
:100D0000002B09D1064B1B78002B05D00122054B87
:100D10001A70BFF35F8F62B600BDC0465804002052
:100D20005C0400200000002000B583B001AB8022ED
:100D30001A700A785A704A789A70191C014B9847B1
:100D400003B000BDE510000030B50C4B1C6A027802
:100D50000321114009020A4A14400C438178012200
:100D60001140C9018025AC430C4341780A409101F0
:100D700040229443221C0A431A6230BD00080040FE
:100D8000FFFCFFFF00B507283BD880001E4B1B5817
:100D90009F46002036E01D4B196A02220A431A6260
:100DA00000202FE0194B996902220A439A61002022
:100DB00028E0164B198A02220A431A82002021E0F9
:100DC000124B998A02220A439A8200201AE0104BA1
:100DD000196802220A431A601A680E4B1A400B4B1C
:100DE0009A84191C1022CB681A42FCD0084A9168D8
:100DF000064BD96251689962126892B29A840020B7
:100E000000E0172000BDC04660140000000800404C
:100E1000600400207FFF0000F0B5474680B484B036
:100E20001D4A1E4B9A601E4B5A681E218A435A6007
:100E300003A800244470012585700470194B98475D
:100E40000620194B9847194B984701956A465470EC
:100E50000623984613701472547203206946144F87
:100E6000B8470320134EB04701956A465470434675
:100E700013701472547200206946B8470020B047BE
:100E80000D4B1C72197804220A431A705C729C7212
:100E900004B004BC9046F0BD1036000000080040CD
:100EA00000400041490D0000850D0000BD0E00000E
:100EB000E10E0000990F00000004004000B5064B51
:100EC000996908220A439A610122044B1A70191C7D
:100ED0000B781A42FCD100BD00040040000C004019
:100EE00070B5061C0C78240204434B78002B02D00A
:100EF0008023DB021C434B7A002B02D080231B0390
:100F00001C434D68012D18D96B1E1D420FD1022DB7
:100F100006D90223002201325B009D42FBD800E08B
:100F200000221502354380235B031C4306E02D029B
:100F3000354380239B021C4300E0351C0B7A002BB9
:100F400002D080239B031C430F4A53785BB2002BD3
:100F5000FBDB0E4B98470E4B1E700B4A53785BB26F
:100F6000002BFBDB084B9D601A1C53785BB2002BF7
:100F7000FBDB054B5968802252020A4014435C6037
:100F8000044B984770BDC046000C0040B10C0000F7
:100F9000080C0040F50C000010B5041C0B4A5378F7
:100FA0005BB2002BFBDB0A4B98470A4B1C70074ACD
:100FB00053785BB2002BFBDB044B59688022520252
:100FC0000A435A60044B984710BDC046000C0040CD
:100FD000B10C0000040C0040F50C000010B5041C1E
:100FE000064B9847064B1C70064B59888022D2014D
:100FF0000A435A80044B984710BDC046B10C00000C
:10100000020C0040000C0040F50C000010B5041C60
:10101000084B9847084B1C70084B5988084A0A40EF
:101020005A80191C8022D2014B881342FCD1054BF7
:10103000984710BDB10C0000020C0040000C0040AD
:10104000FFBFFFFFF50C000010B50C78240204432D
:101050004B78002B02D080231B021C43024B984785
:10106000A4B2024B5C8010BD0D100000000C0040CB
:1010700030B51378802B04D01B06802464022343F0
:1010800000E000235478002C01D0022C0AD194787F
:10109000002C03D18024A402234302E0C024E402F4
:1010A000234341605478013C012C02D80C4C23406E
:1010B00081600D042D0CA024E4052C431C438462A4
:1010C0000D0CD02424062C431C4384625C0305D5FC
:1010D0009378012B01D1816100E0416130BDC046B0
:1010E000FFFFFBFF08B5031C0A1CC10900200029F3
:1010F00003D15809C001044940181F210B400121A8
:101100009940024B984708BD00440041711000000F
:1011100000B5FEE700B5FEE708B5194B194A9A423B
:1011200003D0194B164A9A4204D3184B184A9A42D4
:101130000FD31BE0134A174B13490331C91A89080F
:1011400001318900043BC91801CA01C38B42FBD19C
:10115000EBE7114B0D490331C91A890801318900A8
:10116000043BC918002204C38B42FCD10B4B7F21E6
:101170000B4A8A439A600B4B98470B4B9847FEE704
:1011800000000020AC140000380400201C050020E2
:1011900038040020040000203C04002000ED00E0A2
:1011A0000000000075120000CD0A0000F7B51E1CFB
:1011B000234B171C1A68051C141CFC34E06C0191AD
:1011C000002803D1A62148001018E06443681F2BB3
:1011D00016DD1C4A002A02D1012040422FE0C8211E
:1011E000480000E000BF0028F6D0E26C0023026057
:1011F0004360C622E064C42461005400435003519C
:101200004368002D14D0041C883499000F51C22764
:101210007A0082185768012199400F4357601F1CBC
:101220002037BF003E51022D02D1956829439160BD
:101230009E1C0199B4000133215043600020FEBD83
:10124000801400000000000038B5084B084C1D1C3D
:10125000E01A8410002C06D0A1006A18043A136822
:101260009847013CF6E700F019F938BDA8140000D2
:10127000AC14000070B50E4B0E4D0024E81A85101A
:101280001E1CAC4204D0A100725890470134F8E70C
:1012900000F0FAF80849094A0E1C541AA510002457
:1012A000AC4204D0A300F05880470134F8E770BD89
:1012B0009414000094140000941400009C14000086
:1012C00010B50023934203D0CC5CC4540133F9E73A
:1012D00010BD000008B5034B002B02D0024800F0FF
:1012E00005F808BD000000004912000008B5011C07
:1012F0000020021C031CFFF759FF08BDCE020000AE
:101300002405000024050000240500002405000039
:101310002405000024050000240500002405000029
:101320002405000024050000240500002405000019
:10133000240500002405000024050000B60200007A
:1013400024050000240500002405000024050000F9
:1013500024050000240500002405000024050000E9
:1013600024050000240500002405000024050000D9
:10137000240500002405000024050000C60200002A
:1013800024050000240500002405000024050000B9
:1013900024050000240500002405000024050000A9
:1013A0002405000024050000240500002405000099
:1013B000240500002405000024050000BE020000F2
:1013C0009E020000D6020000AE020000A60200004D
:1013D00002000000030000002800000029000000B7
:1013E00004000000050000000600000007000000E7
:1013F0002000000021000000220000002300000067
:101400002400000025000000260000002700000046
:1014100008000000090000000A0000000B000000A6
:10142000002000420024004200280042002C00421C
:10143000003000420034004200380042003C0042CC
:1014400013131414151516160001000200040008E9
:1014500000100020004000800D0E0F101112131418
:10146000B20D0000020E0000020E0000920D0000FE
:10147000A40D0000C00D0000960D0000CE0D000070
:101480001000002043000000F8B5C046F8BC08BCBE
:101490009E467047D512000021010000F8B5C046F5
:0C14A000F8BC08BC9E467047F500000038
:1014AC0001000000000000001000002000000000FF
:1014BC0000000000FC02002064030020CC0300208C
:1014CC000000000000000000000000000000000010
:1014DC000000000000000000000000000000000000
:1014EC000000000084140000000000000000000058
:1014FC0000000000000000000000000000000000E0
:10150C0000000000000000000000000000000000CF
:10151C0000000000000000000000000000000000BF
:10152C0000000000000000000000000000000000AF
:10153C00000000000000000000000000000000009F
:10154C00000000000000000000000000000000008F
:10155C00000000000000000001000000000000007E
:10156C000E33CDAB34126DE6ECDE05000B00000043
:10157C00000000000000000000000000000000005F
:10158C00000000000000000000000000000000004F
:10159C00000000000000000000000000000000003F
:1015AC00000000000000000000000000000000002F
:0400000300001119CF
:00000001FF
